{
  "_format": "hh-sol-artifact-1",
  "contractName": "DTrace",
  "sourceName": "contracts/DTrace.sol",
  "abi": [
    {
      "inputs": [],
      "stateMutability": "nonpayable",
      "type": "constructor"
    },
    {
      "anonymous": false,
      "inputs": [
        {
          "indexed": false,
          "internalType": "uint256",
          "name": "consumerID",
          "type": "uint256"
        },
        {
          "indexed": false,
          "internalType": "address",
          "name": "consumerAddress",
          "type": "address"
        },
        {
          "indexed": false,
          "internalType": "string",
          "name": "consumerName",
          "type": "string"
        }
      ],
      "name": "ConsumerCreated",
      "type": "event"
    },
    {
      "anonymous": false,
      "inputs": [
        {
          "indexed": false,
          "internalType": "uint256",
          "name": "distributionCenterID",
          "type": "uint256"
        },
        {
          "indexed": false,
          "internalType": "address",
          "name": "distributionCenterAddress",
          "type": "address"
        },
        {
          "indexed": false,
          "internalType": "string",
          "name": "distributionCenterName",
          "type": "string"
        },
        {
          "indexed": false,
          "internalType": "string",
          "name": "distributionCenterLocation",
          "type": "string"
        }
      ],
      "name": "DistributionCenterCreated",
      "type": "event"
    },
    {
      "anonymous": false,
      "inputs": [
        {
          "indexed": false,
          "internalType": "uint256",
          "name": "durianID",
          "type": "uint256"
        }
      ],
      "name": "DurianCreated",
      "type": "event"
    },
    {
      "anonymous": false,
      "inputs": [
        {
          "indexed": false,
          "internalType": "uint256",
          "name": "distributionCenterID",
          "type": "uint256"
        },
        {
          "indexed": false,
          "internalType": "uint256",
          "name": "arrivalTimeDC",
          "type": "uint256"
        },
        {
          "indexed": false,
          "internalType": "string",
          "name": "durianImg",
          "type": "string"
        },
        {
          "indexed": false,
          "internalType": "enum DTrace.Rating",
          "name": "conditionDC",
          "type": "uint8"
        }
      ],
      "name": "DurianDCDetailsCreated",
      "type": "event"
    },
    {
      "anonymous": false,
      "inputs": [
        {
          "indexed": false,
          "internalType": "uint256",
          "name": "farmID",
          "type": "uint256"
        },
        {
          "indexed": false,
          "internalType": "uint256",
          "name": "treeID",
          "type": "uint256"
        },
        {
          "indexed": false,
          "internalType": "string",
          "name": "varietyCode",
          "type": "string"
        },
        {
          "indexed": false,
          "internalType": "uint256",
          "name": "harvestedTime",
          "type": "uint256"
        },
        {
          "indexed": false,
          "internalType": "string",
          "name": "durianImg",
          "type": "string"
        },
        {
          "indexed": false,
          "internalType": "enum DTrace.Rating",
          "name": "conditionFarm",
          "type": "uint8"
        }
      ],
      "name": "DurianFarmDetailsCreated",
      "type": "event"
    },
    {
      "anonymous": false,
      "inputs": [
        {
          "indexed": false,
          "internalType": "uint256",
          "name": "retailerID",
          "type": "uint256"
        },
        {
          "indexed": false,
          "internalType": "uint256",
          "name": "arrivalTimeRT",
          "type": "uint256"
        },
        {
          "indexed": false,
          "internalType": "string",
          "name": "durianImg",
          "type": "string"
        },
        {
          "indexed": false,
          "internalType": "enum DTrace.Rating",
          "name": "conditionRT",
          "type": "uint8"
        }
      ],
      "name": "DurianRTDetailsCreated",
      "type": "event"
    },
    {
      "anonymous": false,
      "inputs": [
        {
          "indexed": false,
          "internalType": "string",
          "name": "durianImg",
          "type": "string"
        },
        {
          "indexed": false,
          "internalType": "enum DTrace.Rating",
          "name": "taste",
          "type": "uint8"
        },
        {
          "indexed": false,
          "internalType": "enum DTrace.Rating",
          "name": "fragrance",
          "type": "uint8"
        },
        {
          "indexed": false,
          "internalType": "enum DTrace.Rating",
          "name": "creaminess",
          "type": "uint8"
        }
      ],
      "name": "DurianRated",
      "type": "event"
    },
    {
      "anonymous": false,
      "inputs": [
        {
          "indexed": false,
          "internalType": "uint256",
          "name": "consumerID",
          "type": "uint256"
        },
        {
          "indexed": false,
          "internalType": "uint256",
          "name": "soldTime",
          "type": "uint256"
        }
      ],
      "name": "DurianSold",
      "type": "event"
    },
    {
      "anonymous": false,
      "inputs": [
        {
          "indexed": false,
          "internalType": "uint256",
          "name": "farmID",
          "type": "uint256"
        },
        {
          "indexed": false,
          "internalType": "address",
          "name": "farmAddress",
          "type": "address"
        },
        {
          "indexed": false,
          "internalType": "string",
          "name": "farmName",
          "type": "string"
        },
        {
          "indexed": false,
          "internalType": "string",
          "name": "farmLocation",
          "type": "string"
        }
      ],
      "name": "FarmCreated",
      "type": "event"
    },
    {
      "anonymous": false,
      "inputs": [
        {
          "indexed": false,
          "internalType": "uint256",
          "name": "retailerID",
          "type": "uint256"
        },
        {
          "indexed": false,
          "internalType": "address",
          "name": "retailerAddress",
          "type": "address"
        },
        {
          "indexed": false,
          "internalType": "string",
          "name": "retailerName",
          "type": "string"
        },
        {
          "indexed": false,
          "internalType": "string",
          "name": "retailerLocation",
          "type": "string"
        }
      ],
      "name": "RetaillerCreated",
      "type": "event"
    },
    {
      "inputs": [
        {
          "internalType": "address",
          "name": "_adminAddress",
          "type": "address"
        }
      ],
      "name": "addAdmin",
      "outputs": [],
      "stateMutability": "nonpayable",
      "type": "function"
    },
    {
      "inputs": [
        {
          "internalType": "address",
          "name": "_consumerAddress",
          "type": "address"
        },
        {
          "internalType": "string",
          "name": "_consumerName",
          "type": "string"
        }
      ],
      "name": "addConsumer",
      "outputs": [],
      "stateMutability": "nonpayable",
      "type": "function"
    },
    {
      "inputs": [
        {
          "internalType": "address",
          "name": "_distributionCenterAddress",
          "type": "address"
        },
        {
          "internalType": "string",
          "name": "_distributionCenterName",
          "type": "string"
        },
        {
          "internalType": "string",
          "name": "_distributionCenterLocation",
          "type": "string"
        }
      ],
      "name": "addDistributionCenter",
      "outputs": [],
      "stateMutability": "nonpayable",
      "type": "function"
    },
    {
      "inputs": [
        {
          "internalType": "uint256",
          "name": "_farmID",
          "type": "uint256"
        },
        {
          "internalType": "uint256",
          "name": "_treeID",
          "type": "uint256"
        },
        {
          "internalType": "string",
          "name": "_varietyCode",
          "type": "string"
        },
        {
          "internalType": "uint256",
          "name": "_harvestedTime",
          "type": "uint256"
        },
        {
          "internalType": "string",
          "name": "_durianImg",
          "type": "string"
        },
        {
          "internalType": "enum DTrace.Rating",
          "name": "_conditionFarm",
          "type": "uint8"
        }
      ],
      "name": "addDurian",
      "outputs": [],
      "stateMutability": "nonpayable",
      "type": "function"
    },
    {
      "inputs": [
        {
          "internalType": "uint256",
          "name": "_durianID",
          "type": "uint256"
        },
        {
          "internalType": "uint256",
          "name": "_distributionCenterID",
          "type": "uint256"
        },
        {
          "internalType": "uint256",
          "name": "_arrivalTimeDC",
          "type": "uint256"
        },
        {
          "internalType": "string",
          "name": "_durianImg",
          "type": "string"
        },
        {
          "internalType": "enum DTrace.Rating",
          "name": "_conditionDC",
          "type": "uint8"
        }
      ],
      "name": "addDurianDCDetails",
      "outputs": [],
      "stateMutability": "nonpayable",
      "type": "function"
    },
    {
      "inputs": [
        {
          "internalType": "uint256",
          "name": "_durianID",
          "type": "uint256"
        },
        {
          "internalType": "uint256",
          "name": "_farmID",
          "type": "uint256"
        },
        {
          "internalType": "uint256",
          "name": "_treeID",
          "type": "uint256"
        },
        {
          "internalType": "string",
          "name": "_varietyCode",
          "type": "string"
        },
        {
          "internalType": "uint256",
          "name": "_harvestedTime",
          "type": "uint256"
        },
        {
          "internalType": "string",
          "name": "_durianImg",
          "type": "string"
        },
        {
          "internalType": "enum DTrace.Rating",
          "name": "_conditionFarm",
          "type": "uint8"
        }
      ],
      "name": "addDurianFarmDetails",
      "outputs": [],
      "stateMutability": "nonpayable",
      "type": "function"
    },
    {
      "inputs": [
        {
          "internalType": "uint256",
          "name": "_durianID",
          "type": "uint256"
        },
        {
          "internalType": "uint256",
          "name": "_retailerID",
          "type": "uint256"
        },
        {
          "internalType": "uint256",
          "name": "_arrivalTimeRT",
          "type": "uint256"
        },
        {
          "internalType": "string",
          "name": "_durianImg",
          "type": "string"
        },
        {
          "internalType": "enum DTrace.Rating",
          "name": "_conditionRT",
          "type": "uint8"
        }
      ],
      "name": "addDurianRTDetails",
      "outputs": [],
      "stateMutability": "nonpayable",
      "type": "function"
    },
    {
      "inputs": [
        {
          "internalType": "address",
          "name": "_farmAddress",
          "type": "address"
        },
        {
          "internalType": "string",
          "name": "_farmName",
          "type": "string"
        },
        {
          "internalType": "string",
          "name": "_farmLocation",
          "type": "string"
        }
      ],
      "name": "addFarm",
      "outputs": [],
      "stateMutability": "nonpayable",
      "type": "function"
    },
    {
      "inputs": [
        {
          "internalType": "address",
          "name": "_retailerAddress",
          "type": "address"
        },
        {
          "internalType": "string",
          "name": "_retailerName",
          "type": "string"
        },
        {
          "internalType": "string",
          "name": "_retailerLocation",
          "type": "string"
        }
      ],
      "name": "addRetailer",
      "outputs": [],
      "stateMutability": "nonpayable",
      "type": "function"
    },
    {
      "inputs": [
        {
          "internalType": "uint256",
          "name": "",
          "type": "uint256"
        }
      ],
      "name": "adminAddresses",
      "outputs": [
        {
          "internalType": "address",
          "name": "",
          "type": "address"
        }
      ],
      "stateMutability": "view",
      "type": "function"
    },
    {
      "inputs": [
        {
          "internalType": "address",
          "name": "",
          "type": "address"
        }
      ],
      "name": "admins",
      "outputs": [
        {
          "internalType": "bool",
          "name": "",
          "type": "bool"
        }
      ],
      "stateMutability": "view",
      "type": "function"
    },
    {
      "inputs": [
        {
          "internalType": "address",
          "name": "_accountAddress",
          "type": "address"
        }
      ],
      "name": "checkAccountType",
      "outputs": [
        {
          "internalType": "string",
          "name": "",
          "type": "string"
        }
      ],
      "stateMutability": "view",
      "type": "function"
    },
    {
      "inputs": [
        {
          "internalType": "uint256",
          "name": "_durianID",
          "type": "uint256"
        }
      ],
      "name": "checkDurianDCDetails",
      "outputs": [
        {
          "internalType": "uint256",
          "name": "",
          "type": "uint256"
        },
        {
          "internalType": "uint256",
          "name": "",
          "type": "uint256"
        },
        {
          "internalType": "string",
          "name": "",
          "type": "string"
        },
        {
          "internalType": "enum DTrace.Rating",
          "name": "",
          "type": "uint8"
        }
      ],
      "stateMutability": "view",
      "type": "function"
    },
    {
      "inputs": [
        {
          "internalType": "uint256",
          "name": "_durianID",
          "type": "uint256"
        }
      ],
      "name": "checkDurianFarmDetails",
      "outputs": [
        {
          "internalType": "uint256",
          "name": "",
          "type": "uint256"
        },
        {
          "internalType": "uint256",
          "name": "",
          "type": "uint256"
        },
        {
          "internalType": "string",
          "name": "",
          "type": "string"
        },
        {
          "internalType": "uint256",
          "name": "",
          "type": "uint256"
        },
        {
          "internalType": "string",
          "name": "",
          "type": "string"
        },
        {
          "internalType": "enum DTrace.Rating",
          "name": "",
          "type": "uint8"
        }
      ],
      "stateMutability": "view",
      "type": "function"
    },
    {
      "inputs": [
        {
          "internalType": "uint256",
          "name": "_durianID",
          "type": "uint256"
        }
      ],
      "name": "checkDurianRTDetails",
      "outputs": [
        {
          "internalType": "uint256",
          "name": "",
          "type": "uint256"
        },
        {
          "internalType": "uint256",
          "name": "",
          "type": "uint256"
        },
        {
          "internalType": "string",
          "name": "",
          "type": "string"
        },
        {
          "internalType": "enum DTrace.Rating",
          "name": "",
          "type": "uint8"
        }
      ],
      "stateMutability": "view",
      "type": "function"
    },
    {
      "inputs": [
        {
          "internalType": "uint256",
          "name": "_durianID",
          "type": "uint256"
        }
      ],
      "name": "checkDurianRatingDetails",
      "outputs": [
        {
          "internalType": "string",
          "name": "",
          "type": "string"
        },
        {
          "internalType": "enum DTrace.Rating",
          "name": "",
          "type": "uint8"
        },
        {
          "internalType": "enum DTrace.Rating",
          "name": "",
          "type": "uint8"
        },
        {
          "internalType": "enum DTrace.Rating",
          "name": "",
          "type": "uint8"
        }
      ],
      "stateMutability": "view",
      "type": "function"
    },
    {
      "inputs": [
        {
          "internalType": "uint256",
          "name": "_durianID",
          "type": "uint256"
        }
      ],
      "name": "checkDurianSoldDetails",
      "outputs": [
        {
          "internalType": "uint256",
          "name": "",
          "type": "uint256"
        },
        {
          "internalType": "uint256",
          "name": "",
          "type": "uint256"
        }
      ],
      "stateMutability": "view",
      "type": "function"
    },
    {
      "inputs": [
        {
          "internalType": "uint256",
          "name": "_durianID",
          "type": "uint256"
        }
      ],
      "name": "checkDurianStatus",
      "outputs": [
        {
          "internalType": "enum DTrace.DurianStatus",
          "name": "",
          "type": "uint8"
        }
      ],
      "stateMutability": "view",
      "type": "function"
    },
    {
      "inputs": [],
      "name": "checkTotalDurian",
      "outputs": [
        {
          "internalType": "uint256",
          "name": "",
          "type": "uint256"
        }
      ],
      "stateMutability": "view",
      "type": "function"
    },
    {
      "inputs": [
        {
          "internalType": "uint256",
          "name": "",
          "type": "uint256"
        }
      ],
      "name": "consumerAddresses",
      "outputs": [
        {
          "internalType": "address",
          "name": "",
          "type": "address"
        }
      ],
      "stateMutability": "view",
      "type": "function"
    },
    {
      "inputs": [],
      "name": "consumerNum",
      "outputs": [
        {
          "internalType": "uint256",
          "name": "_value",
          "type": "uint256"
        }
      ],
      "stateMutability": "view",
      "type": "function"
    },
    {
      "inputs": [
        {
          "internalType": "address",
          "name": "",
          "type": "address"
        }
      ],
      "name": "consumers",
      "outputs": [
        {
          "internalType": "uint256",
          "name": "consumerID",
          "type": "uint256"
        },
        {
          "internalType": "address",
          "name": "consumerAddress",
          "type": "address"
        },
        {
          "internalType": "string",
          "name": "consumerName",
          "type": "string"
        }
      ],
      "stateMutability": "view",
      "type": "function"
    },
    {
      "inputs": [],
      "name": "contractOwner",
      "outputs": [
        {
          "internalType": "address",
          "name": "",
          "type": "address"
        }
      ],
      "stateMutability": "view",
      "type": "function"
    },
    {
      "inputs": [
        {
          "internalType": "uint256",
          "name": "",
          "type": "uint256"
        }
      ],
      "name": "distributionCenterAddresses",
      "outputs": [
        {
          "internalType": "address",
          "name": "",
          "type": "address"
        }
      ],
      "stateMutability": "view",
      "type": "function"
    },
    {
      "inputs": [],
      "name": "distributionCenterNum",
      "outputs": [
        {
          "internalType": "uint256",
          "name": "_value",
          "type": "uint256"
        }
      ],
      "stateMutability": "view",
      "type": "function"
    },
    {
      "inputs": [
        {
          "internalType": "address",
          "name": "",
          "type": "address"
        }
      ],
      "name": "distributionCenters",
      "outputs": [
        {
          "internalType": "uint256",
          "name": "distributionCenterID",
          "type": "uint256"
        },
        {
          "internalType": "address",
          "name": "distributionCenterAddress",
          "type": "address"
        },
        {
          "internalType": "string",
          "name": "distributionCenterName",
          "type": "string"
        },
        {
          "internalType": "string",
          "name": "distributionCenterLocation",
          "type": "string"
        }
      ],
      "stateMutability": "view",
      "type": "function"
    },
    {
      "inputs": [],
      "name": "durianNum",
      "outputs": [
        {
          "internalType": "uint256",
          "name": "_value",
          "type": "uint256"
        }
      ],
      "stateMutability": "view",
      "type": "function"
    },
    {
      "inputs": [
        {
          "internalType": "uint256",
          "name": "",
          "type": "uint256"
        }
      ],
      "name": "durians",
      "outputs": [
        {
          "internalType": "uint256",
          "name": "durianID",
          "type": "uint256"
        },
        {
          "internalType": "enum DTrace.DurianStatus",
          "name": "status",
          "type": "uint8"
        },
        {
          "components": [
            {
              "internalType": "uint256",
              "name": "farmID",
              "type": "uint256"
            },
            {
              "internalType": "uint256",
              "name": "treeID",
              "type": "uint256"
            },
            {
              "internalType": "string",
              "name": "varietyCode",
              "type": "string"
            },
            {
              "internalType": "uint256",
              "name": "harvestedTime",
              "type": "uint256"
            },
            {
              "internalType": "string",
              "name": "durianImg",
              "type": "string"
            },
            {
              "internalType": "enum DTrace.Rating",
              "name": "conditionFarm",
              "type": "uint8"
            }
          ],
          "internalType": "struct DTrace.DurianFarmDetails",
          "name": "durianFarmDetails",
          "type": "tuple"
        },
        {
          "components": [
            {
              "internalType": "uint256",
              "name": "distributionCenterID",
              "type": "uint256"
            },
            {
              "internalType": "uint256",
              "name": "arrivalTimeDC",
              "type": "uint256"
            },
            {
              "internalType": "string",
              "name": "durianImg",
              "type": "string"
            },
            {
              "internalType": "enum DTrace.Rating",
              "name": "conditionDC",
              "type": "uint8"
            }
          ],
          "internalType": "struct DTrace.DurianDCDetails",
          "name": "durianDCDetails",
          "type": "tuple"
        },
        {
          "components": [
            {
              "internalType": "uint256",
              "name": "retailerID",
              "type": "uint256"
            },
            {
              "internalType": "uint256",
              "name": "arrivalTimeRT",
              "type": "uint256"
            },
            {
              "internalType": "string",
              "name": "durianImg",
              "type": "string"
            },
            {
              "internalType": "enum DTrace.Rating",
              "name": "conditionRT",
              "type": "uint8"
            }
          ],
          "internalType": "struct DTrace.DurianRTDetails",
          "name": "durianRTDetails",
          "type": "tuple"
        },
        {
          "components": [
            {
              "internalType": "uint256",
              "name": "consumerID",
              "type": "uint256"
            },
            {
              "internalType": "uint256",
              "name": "soldTime",
              "type": "uint256"
            },
            {
              "internalType": "string",
              "name": "durianImg",
              "type": "string"
            },
            {
              "internalType": "enum DTrace.Rating",
              "name": "taste",
              "type": "uint8"
            },
            {
              "internalType": "enum DTrace.Rating",
              "name": "fragrance",
              "type": "uint8"
            },
            {
              "internalType": "enum DTrace.Rating",
              "name": "creaminess",
              "type": "uint8"
            }
          ],
          "internalType": "struct DTrace.DurianCSDetails",
          "name": "durianCSDetails",
          "type": "tuple"
        }
      ],
      "stateMutability": "view",
      "type": "function"
    },
    {
      "inputs": [
        {
          "internalType": "uint256",
          "name": "",
          "type": "uint256"
        }
      ],
      "name": "farmAddresses",
      "outputs": [
        {
          "internalType": "address",
          "name": "",
          "type": "address"
        }
      ],
      "stateMutability": "view",
      "type": "function"
    },
    {
      "inputs": [],
      "name": "farmNum",
      "outputs": [
        {
          "internalType": "uint256",
          "name": "_value",
          "type": "uint256"
        }
      ],
      "stateMutability": "view",
      "type": "function"
    },
    {
      "inputs": [
        {
          "internalType": "address",
          "name": "",
          "type": "address"
        }
      ],
      "name": "farms",
      "outputs": [
        {
          "internalType": "uint256",
          "name": "farmID",
          "type": "uint256"
        },
        {
          "internalType": "address",
          "name": "farmAddress",
          "type": "address"
        },
        {
          "internalType": "string",
          "name": "farmName",
          "type": "string"
        },
        {
          "internalType": "string",
          "name": "farmLocation",
          "type": "string"
        }
      ],
      "stateMutability": "view",
      "type": "function"
    },
    {
      "inputs": [
        {
          "internalType": "address",
          "name": "_adminAddress",
          "type": "address"
        }
      ],
      "name": "getAdminData",
      "outputs": [
        {
          "internalType": "address",
          "name": "",
          "type": "address"
        },
        {
          "internalType": "bool",
          "name": "",
          "type": "bool"
        }
      ],
      "stateMutability": "view",
      "type": "function"
    },
    {
      "inputs": [],
      "name": "getAdminList",
      "outputs": [
        {
          "internalType": "address[]",
          "name": "",
          "type": "address[]"
        }
      ],
      "stateMutability": "view",
      "type": "function"
    },
    {
      "inputs": [],
      "name": "getAdminTotal",
      "outputs": [
        {
          "internalType": "uint256",
          "name": "",
          "type": "uint256"
        }
      ],
      "stateMutability": "view",
      "type": "function"
    },
    {
      "inputs": [
        {
          "internalType": "address",
          "name": "_consumerAddress",
          "type": "address"
        }
      ],
      "name": "getConsumerData",
      "outputs": [
        {
          "internalType": "uint256",
          "name": "",
          "type": "uint256"
        },
        {
          "internalType": "address",
          "name": "",
          "type": "address"
        },
        {
          "internalType": "string",
          "name": "",
          "type": "string"
        }
      ],
      "stateMutability": "view",
      "type": "function"
    },
    {
      "inputs": [],
      "name": "getConsumerList",
      "outputs": [
        {
          "internalType": "address[]",
          "name": "",
          "type": "address[]"
        }
      ],
      "stateMutability": "view",
      "type": "function"
    },
    {
      "inputs": [],
      "name": "getConsumerTotal",
      "outputs": [
        {
          "internalType": "uint256",
          "name": "",
          "type": "uint256"
        }
      ],
      "stateMutability": "view",
      "type": "function"
    },
    {
      "inputs": [],
      "name": "getContractOwner",
      "outputs": [
        {
          "internalType": "address",
          "name": "",
          "type": "address"
        }
      ],
      "stateMutability": "view",
      "type": "function"
    },
    {
      "inputs": [
        {
          "internalType": "address",
          "name": "_distributionCenterAddress",
          "type": "address"
        }
      ],
      "name": "getDistributionCenterData",
      "outputs": [
        {
          "internalType": "uint256",
          "name": "",
          "type": "uint256"
        },
        {
          "internalType": "address",
          "name": "",
          "type": "address"
        },
        {
          "internalType": "string",
          "name": "",
          "type": "string"
        },
        {
          "internalType": "string",
          "name": "",
          "type": "string"
        }
      ],
      "stateMutability": "view",
      "type": "function"
    },
    {
      "inputs": [],
      "name": "getDistributionCenterList",
      "outputs": [
        {
          "internalType": "address[]",
          "name": "",
          "type": "address[]"
        }
      ],
      "stateMutability": "view",
      "type": "function"
    },
    {
      "inputs": [],
      "name": "getDistributionCenterTotal",
      "outputs": [
        {
          "internalType": "uint256",
          "name": "",
          "type": "uint256"
        }
      ],
      "stateMutability": "view",
      "type": "function"
    },
    {
      "inputs": [
        {
          "internalType": "address",
          "name": "_farmAddress",
          "type": "address"
        }
      ],
      "name": "getFarmData",
      "outputs": [
        {
          "internalType": "uint256",
          "name": "",
          "type": "uint256"
        },
        {
          "internalType": "address",
          "name": "",
          "type": "address"
        },
        {
          "internalType": "string",
          "name": "",
          "type": "string"
        },
        {
          "internalType": "string",
          "name": "",
          "type": "string"
        }
      ],
      "stateMutability": "view",
      "type": "function"
    },
    {
      "inputs": [],
      "name": "getFarmList",
      "outputs": [
        {
          "internalType": "address[]",
          "name": "",
          "type": "address[]"
        }
      ],
      "stateMutability": "view",
      "type": "function"
    },
    {
      "inputs": [],
      "name": "getFarmTotal",
      "outputs": [
        {
          "internalType": "uint256",
          "name": "",
          "type": "uint256"
        }
      ],
      "stateMutability": "view",
      "type": "function"
    },
    {
      "inputs": [
        {
          "internalType": "address",
          "name": "_retailerAddress",
          "type": "address"
        }
      ],
      "name": "getRetailerData",
      "outputs": [
        {
          "internalType": "uint256",
          "name": "",
          "type": "uint256"
        },
        {
          "internalType": "address",
          "name": "",
          "type": "address"
        },
        {
          "internalType": "string",
          "name": "",
          "type": "string"
        },
        {
          "internalType": "string",
          "name": "",
          "type": "string"
        }
      ],
      "stateMutability": "view",
      "type": "function"
    },
    {
      "inputs": [],
      "name": "getRetailerList",
      "outputs": [
        {
          "internalType": "address[]",
          "name": "",
          "type": "address[]"
        }
      ],
      "stateMutability": "view",
      "type": "function"
    },
    {
      "inputs": [],
      "name": "getRetailerTotal",
      "outputs": [
        {
          "internalType": "uint256",
          "name": "",
          "type": "uint256"
        }
      ],
      "stateMutability": "view",
      "type": "function"
    },
    {
      "inputs": [
        {
          "internalType": "uint256",
          "name": "_durianID",
          "type": "uint256"
        },
        {
          "internalType": "string",
          "name": "_durianImg",
          "type": "string"
        },
        {
          "internalType": "enum DTrace.Rating",
          "name": "_taste",
          "type": "uint8"
        },
        {
          "internalType": "enum DTrace.Rating",
          "name": "_fragrance",
          "type": "uint8"
        },
        {
          "internalType": "enum DTrace.Rating",
          "name": "_creaminess",
          "type": "uint8"
        }
      ],
      "name": "rateDurian",
      "outputs": [],
      "stateMutability": "nonpayable",
      "type": "function"
    },
    {
      "inputs": [
        {
          "internalType": "uint256",
          "name": "",
          "type": "uint256"
        }
      ],
      "name": "retailerAddresses",
      "outputs": [
        {
          "internalType": "address",
          "name": "",
          "type": "address"
        }
      ],
      "stateMutability": "view",
      "type": "function"
    },
    {
      "inputs": [],
      "name": "retailerNum",
      "outputs": [
        {
          "internalType": "uint256",
          "name": "_value",
          "type": "uint256"
        }
      ],
      "stateMutability": "view",
      "type": "function"
    },
    {
      "inputs": [
        {
          "internalType": "address",
          "name": "",
          "type": "address"
        }
      ],
      "name": "retaillers",
      "outputs": [
        {
          "internalType": "uint256",
          "name": "retailerID",
          "type": "uint256"
        },
        {
          "internalType": "address",
          "name": "retailerAddress",
          "type": "address"
        },
        {
          "internalType": "string",
          "name": "retailerName",
          "type": "string"
        },
        {
          "internalType": "string",
          "name": "retailerLocation",
          "type": "string"
        }
      ],
      "stateMutability": "view",
      "type": "function"
    },
    {
      "inputs": [
        {
          "internalType": "uint256",
          "name": "_durianID",
          "type": "uint256"
        },
        {
          "internalType": "uint256",
          "name": "_consumerID",
          "type": "uint256"
        },
        {
          "internalType": "uint256",
          "name": "_soldTime",
          "type": "uint256"
        }
      ],
      "name": "sellDurian",
      "outputs": [],
      "stateMutability": "nonpayable",
      "type": "function"
    }
  ],
  "bytecode": "0x608060405234801561001057600080fd5b5033600e60006101000a81548173ffffffffffffffffffffffffffffffffffffffff021916908373ffffffffffffffffffffffffffffffffffffffff160217905550615e7480620000626000396000f3fe608060405234801561001057600080fd5b506004361061030c5760003560e01c806370b9a29b1161019d578063ce606ee0116100e9578063dff4b65e116100a2578063ee446d9f1161007c578063ee446d9f14610a25578063efbe3c5c14610a5a578063f5679a2714610a8b578063febe194114610ac05761030c565b8063dff4b65e146109a4578063e54b6c73146109c2578063eb2bcf3e146109f25761030c565b8063ce606ee0146108cd578063d328f6ff146108eb578063d3f14c1e14610907578063d60fa55b14610937578063d9f774fc14610955578063de5a71fe146109735761030c565b8063b46eea3911610156578063c0648b4b11610130578063c0648b4b1461082b578063c6831aee1461085e578063c9a8438114610891578063cb05c325146108af5761030c565b8063b46eea39146107c1578063b63e78f8146107dd578063ba44eecf146107fb5761030c565b806370b9a29b146106c357806375690c1b146106df578063857ddb04146107125780638b50c9d91461072e5780638d75ef671461075e5780639c6d877a1461078e5761030c565b8063380ab8d31161025c5780634c5a56b0116102155780636895b776116101ef5780636895b776146106245780636a7352d5146106425780636f33cd9a1461067557806370480275146106a75761030c565b80634c5a56b0146105cc57806366732585146105ea5780636720b93e146106085761030c565b8063380ab8d3146104e1578063421adfa0146104fd578063429b62e514610530578063442890d514610560578063448998a41461057e57806347ee6e3c1461059c5761030c565b8063110ee655116102c957806322b57758116102a357806322b577581461046d57806325b00da11461048b5780633214e893146104a757806332c55135146104c55761030c565b8063110ee6551461040057806315f6389a14610433578063227cca09146104515761030c565b806303adaee014610311578063087217df1461032f5780630bf536681461034d5780630c7194531461037f5780630daa9698146103af5780630f49f666146103cd575b600080fd5b610319610adc565b60405161032691906148a1565b60405180910390f35b610337610b6a565b60405161034491906148dc565b60405180910390f35b61036760048036038101906103629190614937565b610b76565b60405161037693929190614a03565b60405180910390f35b61039960048036038101906103949190614a6d565b610c48565b6040516103a69190614a9a565b60405180910390f35b6103b7610c87565b6040516103c491906148dc565b60405180910390f35b6103e760048036038101906103e29190614a6d565b610c93565b6040516103f79493929190614b2c565b60405180910390f35b61041a60048036038101906104159190614937565b610da9565b60405161042a9493929190614b78565b60405180910390f35b61043b610f09565b60405161044891906148dc565b60405180910390f35b61046b60048036038101906104669190614d00565b610f16565b005b61047561122d565b60405161048291906148dc565b60405180910390f35b6104a560048036038101906104a09190614d81565b611239565b005b6104af6114b1565b6040516104bc91906148a1565b60405180910390f35b6104df60048036038101906104da9190614e5b565b61153f565b005b6104fb60048036038101906104f69190614eae565b6117b3565b005b61051760048036038101906105129190614937565b611ade565b6040516105279493929190614b78565b60405180910390f35b61054a60048036038101906105459190614937565b611c3e565b6040516105579190614f60565b60405180910390f35b610568611c5e565b6040516105759190614a9a565b60405180910390f35b610586611c88565b60405161059391906148dc565b60405180910390f35b6105b660048036038101906105b19190614a6d565b611c94565b6040516105c39190614a9a565b60405180910390f35b6105d4611cd3565b6040516105e191906148dc565b60405180910390f35b6105f2611cdf565b6040516105ff91906148dc565b60405180910390f35b610622600480360381019061061d9190614f7b565b611cf0565b005b61062c611f8e565b60405161063991906148dc565b60405180910390f35b61065c60048036038101906106579190614937565b611f9b565b60405161066c9493929190614b78565b60405180910390f35b61068f600480360381019061068a9190614937565b612197565b60405161069e93929190614a03565b60405180910390f35b6106c160048036038101906106bc9190614937565b6122f9565b005b6106dd60048036038101906106d89190615006565b61249b565b005b6106f960048036038101906106f49190614937565b612603565b6040516107099493929190614b78565b60405180910390f35b61072c60048036038101906107279190614f7b565b612763565b005b61074860048036038101906107439190614937565b612a01565b60405161075591906150cb565b60405180910390f35b61077860048036038101906107739190614a6d565b612e70565b6040516107859190614a9a565b60405180910390f35b6107a860048036038101906107a39190614937565b612eaf565b6040516107b89493929190614b78565b60405180910390f35b6107db60048036038101906107d691906150ed565b6130ab565b005b6107e5613395565b6040516107f291906148a1565b60405180910390f35b61081560048036038101906108109190614a6d565b613423565b6040516108229190614a9a565b60405180910390f35b61084560048036038101906108409190614937565b613462565b6040516108559493929190614b78565b60405180910390f35b61087860048036038101906108739190614a6d565b61365e565b6040516108889493929190615184565b60405180910390f35b61089961378e565b6040516108a691906148dc565b60405180910390f35b6108b761379f565b6040516108c491906148a1565b60405180910390f35b6108d561382d565b6040516108e29190614a9a565b60405180910390f35b61090560048036038101906109009190614f7b565b613853565b005b610921600480360381019061091c9190614a6d565b613af1565b60405161092e9190614a9a565b60405180910390f35b61093f613b30565b60405161094c91906148dc565b60405180910390f35b61095d613b41565b60405161096a91906148a1565b60405180910390f35b61098d60048036038101906109889190614a6d565b613bcf565b60405161099b9291906151d0565b60405180910390f35b6109ac613c0f565b6040516109b991906148dc565b60405180910390f35b6109dc60048036038101906109d79190614a6d565b613c20565b6040516109e99190615241565b60405180910390f35b610a0c6004803603810190610a079190614a6d565b613c4d565b604051610a1c9493929190614b2c565b60405180910390f35b610a3f6004803603810190610a3a9190614a6d565b613d63565b604051610a51969594939291906154a3565b60405180910390f35b610a746004803603810190610a6f9190614937565b61426a565b604051610a82929190615520565b60405180910390f35b610aa56004803603810190610aa09190614a6d565b6142c4565b604051610ab796959493929190615549565b60405180910390f35b610ada6004803603810190610ad591906150ed565b6144a3565b005b6060600c805480602002602001604051908101604052809291908181526020018280548015610b6057602002820191906000526020600020905b8160009054906101000a900473ffffffffffffffffffffffffffffffffffffffff1673ffffffffffffffffffffffffffffffffffffffff1681526020019060010190808311610b16575b5050505050905090565b60038060000154905081565b600d6020528060005260406000206000915090508060000154908060010160009054906101000a900473ffffffffffffffffffffffffffffffffffffffff1690806002018054610bc5906155e7565b80601f0160208091040260200160405190810160405280929190818152602001828054610bf1906155e7565b8015610c3e5780601f10610c1357610100808354040283529160200191610c3e565b820191906000526020600020905b815481529060010190602001808311610c2157829003601f168201915b5050505050905083565b600a8181548110610c5857600080fd5b906000526020600020016000915054906101000a900473ffffffffffffffffffffffffffffffffffffffff1681565b60048060000154905081565b6000806060600060056000868152602001908152602001600020600c016000015460056000878152602001908152602001600020600c016001015460056000888152602001908152602001600020600c0160020160056000898152602001908152602001600020600c0160030160009054906101000a900460ff16818054610d1a906155e7565b80601f0160208091040260200160405190810160405280929190818152602001828054610d46906155e7565b8015610d935780601f10610d6857610100808354040283529160200191610d93565b820191906000526020600020905b815481529060010190602001808311610d7657829003601f168201915b5050505050915093509350935093509193509193565b600b6020528060005260406000206000915090508060000154908060010160009054906101000a900473ffffffffffffffffffffffffffffffffffffffff1690806002018054610df8906155e7565b80601f0160208091040260200160405190810160405280929190818152602001828054610e24906155e7565b8015610e715780601f10610e4657610100808354040283529160200191610e71565b820191906000526020600020905b815481529060010190602001808311610e5457829003601f168201915b505050505090806003018054610e86906155e7565b80601f0160208091040260200160405190810160405280929190818152602001828054610eb2906155e7565b8015610eff5780601f10610ed457610100808354040283529160200191610eff565b820191906000526020600020905b815481529060010190602001808311610ee257829003601f168201915b5050505050905084565b6000600680549050905090565b601060003373ffffffffffffffffffffffffffffffffffffffff1673ffffffffffffffffffffffffffffffffffffffff16815260200190815260200160002060009054906101000a900460ff1680610fbb5750600e60009054906101000a900473ffffffffffffffffffffffffffffffffffffffff1673ffffffffffffffffffffffffffffffffffffffff163373ffffffffffffffffffffffffffffffffffffffff16145b8061105357503373ffffffffffffffffffffffffffffffffffffffff16600b60003373ffffffffffffffffffffffffffffffffffffffff1673ffffffffffffffffffffffffffffffffffffffff16815260200190815260200160002060010160009054906101000a900473ffffffffffffffffffffffffffffffffffffffff1673ffffffffffffffffffffffffffffffffffffffff16145b611092576040517f08c379a00000000000000000000000000000000000000000000000000000000081526004016110899061568a565b60405180910390fd5b61109c600461478d565b60006110a860046147a3565b9050600060405180606001604052808381526020018573ffffffffffffffffffffffffffffffffffffffff16815260200184815250905080600d60008673ffffffffffffffffffffffffffffffffffffffff1673ffffffffffffffffffffffffffffffffffffffff1681526020019081526020016000206000820151816000015560208201518160010160006101000a81548173ffffffffffffffffffffffffffffffffffffffff021916908373ffffffffffffffffffffffffffffffffffffffff16021790555060408201518160020190816111859190615856565b50905050600c849080600181540180825580915050600190039060005260206000200160009091909190916101000a81548173ffffffffffffffffffffffffffffffffffffffff021916908373ffffffffffffffffffffffffffffffffffffffff1602179055507fe94aff26da93274b8ae78ffb1feb80405d53bcc381b9a029bc612d12f8c0979182858560405161121f93929190614a03565b60405180910390a150505050565b60018060000154905081565b3373ffffffffffffffffffffffffffffffffffffffff16600760003373ffffffffffffffffffffffffffffffffffffffff1673ffffffffffffffffffffffffffffffffffffffff16815260200190815260200160002060010160009054906101000a900473ffffffffffffffffffffffffffffffffffffffff1673ffffffffffffffffffffffffffffffffffffffff1614611309576040517f08c379a000000000000000000000000000000000000000000000000000000000815260040161130090615974565b60405180910390fd5b60008381811161134e576040517f08c379a0000000000000000000000000000000000000000000000000000000008152600401611345906159e0565b60405180910390fd5b60006040518060c001604052808a815260200189815260200188815260200187815260200186815260200185600481111561138c5761138b614ab5565b5b815250905080600560008c8152602001908152602001600020600201600082015181600001556020820151816001015560408201518160020190816113d19190615856565b506060820151816003015560808201518160040190816113f19190615856565b5060a08201518160050160006101000a81548160ff0219169083600481111561141d5761141c614ab5565b5b02179055509050506000600560008c815260200190815260200160002060010160006101000a81548160ff0219169083600481111561145f5761145e614ab5565b5b02179055507fd35060b3338ec41c76a6964436fe726719cb6ae75ade70f37a4b3ad61ad7dac989898989898960405161149d96959493929190615549565b60405180910390a150505050505050505050565b6060600680548060200260200160405190810160405280929190818152602001828054801561153557602002820191906000526020600020905b8160009054906101000a900473ffffffffffffffffffffffffffffffffffffffff1673ffffffffffffffffffffffffffffffffffffffff16815260200190600101908083116114eb575b5050505050905090565b3373ffffffffffffffffffffffffffffffffffffffff16600b60003373ffffffffffffffffffffffffffffffffffffffff1673ffffffffffffffffffffffffffffffffffffffff16815260200190815260200160002060010160009054906101000a900473ffffffffffffffffffffffffffffffffffffffff1673ffffffffffffffffffffffffffffffffffffffff161461160f576040517f08c379a000000000000000000000000000000000000000000000000000000000815260040161160690615a4c565b60405180910390fd5b826002600481111561162457611623614ab5565b5b6005600083815260200190815260200160002060010160009054906101000a900460ff16600481111561165a57611659614ab5565b5b1461169a576040517f08c379a000000000000000000000000000000000000000000000000000000000815260040161169190615ab8565b60405180910390fd5b60056000858152602001908152602001600020600c0160010154828181116116f7576040517f08c379a00000000000000000000000000000000000000000000000000000000081526004016116ee906159e0565b60405180910390fd5b84600560008881526020019081526020016000206010016000018190555083600560008881526020019081526020016000206010016001018190555060036005600088815260200190815260200160002060010160006101000a81548160ff0219169083600481111561176d5761176c614ab5565b5b02179055507f03794a10274a8e38e7b86d13a0747ae7a8b2d5482f7e0be919888cd5032979b985856040516117a39291906151d0565b60405180910390a1505050505050565b843373ffffffffffffffffffffffffffffffffffffffff16600c600160056000858152602001908152602001600020601001600001546117f39190615b07565b8154811061180457611803615b3b565b5b9060005260206000200160009054906101000a900473ffffffffffffffffffffffffffffffffffffffff1673ffffffffffffffffffffffffffffffffffffffff1614611885576040517f08c379a000000000000000000000000000000000000000000000000000000000815260040161187c90615bdc565b60405180910390fd5b856003600481111561189a57611899614ab5565b5b6005600083815260200190815260200160002060010160009054906101000a900460ff1660048111156118d0576118cf614ab5565b5b14611910576040517f08c379a000000000000000000000000000000000000000000000000000000000815260040161190790615c48565b60405180910390fd5b60056000888152602001908152602001600020601001600101544281811161196d576040517f08c379a0000000000000000000000000000000000000000000000000000000008152600401611964906159e0565b60405180910390fd5b87600560008b815260200190815260200160002060100160020190816119939190615856565b5086600560008b815260200190815260200160002060100160030160006101000a81548160ff021916908360048111156119d0576119cf614ab5565b5b021790555085600560008b815260200190815260200160002060100160030160016101000a81548160ff02191690836004811115611a1157611a10614ab5565b5b021790555084600560008b815260200190815260200160002060100160030160026101000a81548160ff02191690836004811115611a5257611a51614ab5565b5b02179055506004600560008b815260200190815260200160002060010160006101000a81548160ff02191690836004811115611a9157611a90614ab5565b5b02179055507ff68b8403a5b69c115a9f0d19860b34f9dc877acea8e023e614b1454cd6aa443688888888604051611acb9493929190615184565b60405180910390a1505050505050505050565b60076020528060005260406000206000915090508060000154908060010160009054906101000a900473ffffffffffffffffffffffffffffffffffffffff1690806002018054611b2d906155e7565b80601f0160208091040260200160405190810160405280929190818152602001828054611b59906155e7565b8015611ba65780601f10611b7b57610100808354040283529160200191611ba6565b820191906000526020600020905b815481529060010190602001808311611b8957829003601f168201915b505050505090806003018054611bbb906155e7565b80601f0160208091040260200160405190810160405280929190818152602001828054611be7906155e7565b8015611c345780601f10611c0957610100808354040283529160200191611c34565b820191906000526020600020905b815481529060010190602001808311611c1757829003601f168201915b5050505050905084565b60106020528060005260406000206000915054906101000a900460ff1681565b6000600e60009054906101000a900473ffffffffffffffffffffffffffffffffffffffff16905090565b60008060000154905081565b600c8181548110611ca457600080fd5b906000526020600020016000915054906101000a900473ffffffffffffffffffffffffffffffffffffffff1681565b60028060000154905081565b6000611ceb60026147a3565b905090565b601060003373ffffffffffffffffffffffffffffffffffffffff1673ffffffffffffffffffffffffffffffffffffffff16815260200190815260200160002060009054906101000a900460ff1680611d955750600e60009054906101000a900473ffffffffffffffffffffffffffffffffffffffff1673ffffffffffffffffffffffffffffffffffffffff163373ffffffffffffffffffffffffffffffffffffffff16145b611dd4576040517f08c379a0000000000000000000000000000000000000000000000000000000008152600401611dcb90615cb4565b60405180910390fd5b611dde600161478d565b6000611dea60016147a3565b9050600060405180608001604052808381526020018673ffffffffffffffffffffffffffffffffffffffff16815260200185815260200184815250905080600760008773ffffffffffffffffffffffffffffffffffffffff1673ffffffffffffffffffffffffffffffffffffffff1681526020019081526020016000206000820151816000015560208201518160010160006101000a81548173ffffffffffffffffffffffffffffffffffffffff021916908373ffffffffffffffffffffffffffffffffffffffff1602179055506040820151816002019081611ecd9190615856565b506060820151816003019081611ee39190615856565b509050506006859080600181540180825580915050600190039060005260206000200160009091909190916101000a81548173ffffffffffffffffffffffffffffffffffffffff021916908373ffffffffffffffffffffffffffffffffffffffff1602179055507fd914dddd5f6719ad0bfcd6497a351547c09fd40baac335247b42f46bfd0774d482868686604051611f7f9493929190614b78565b60405180910390a15050505050565b6000600f80549050905090565b6000806060806000600b60008773ffffffffffffffffffffffffffffffffffffffff1673ffffffffffffffffffffffffffffffffffffffff168152602001908152602001600020604051806080016040529081600082015481526020016001820160009054906101000a900473ffffffffffffffffffffffffffffffffffffffff1673ffffffffffffffffffffffffffffffffffffffff1673ffffffffffffffffffffffffffffffffffffffff16815260200160028201805461205d906155e7565b80601f0160208091040260200160405190810160405280929190818152602001828054612089906155e7565b80156120d65780601f106120ab576101008083540402835291602001916120d6565b820191906000526020600020905b8154815290600101906020018083116120b957829003601f168201915b505050505081526020016003820180546120ef906155e7565b80601f016020809104026020016040519081016040528092919081815260200182805461211b906155e7565b80156121685780601f1061213d57610100808354040283529160200191612168565b820191906000526020600020905b81548152906001019060200180831161214b57829003601f168201915b505050505081525050905080600001518160200151826040015183606001519450945094509450509193509193565b60008060606000600d60008673ffffffffffffffffffffffffffffffffffffffff1673ffffffffffffffffffffffffffffffffffffffff168152602001908152602001600020604051806060016040529081600082015481526020016001820160009054906101000a900473ffffffffffffffffffffffffffffffffffffffff1673ffffffffffffffffffffffffffffffffffffffff1673ffffffffffffffffffffffffffffffffffffffff168152602001600282018054612258906155e7565b80601f0160208091040260200160405190810160405280929190818152602001828054612284906155e7565b80156122d15780601f106122a6576101008083540402835291602001916122d1565b820191906000526020600020905b8154815290600101906020018083116122b457829003601f168201915b5050505050815250509050806000015181602001518260400151935093509350509193909250565b601060003373ffffffffffffffffffffffffffffffffffffffff1673ffffffffffffffffffffffffffffffffffffffff16815260200190815260200160002060009054906101000a900460ff168061239e5750600e60009054906101000a900473ffffffffffffffffffffffffffffffffffffffff1673ffffffffffffffffffffffffffffffffffffffff163373ffffffffffffffffffffffffffffffffffffffff16145b6123dd576040517f08c379a00000000000000000000000000000000000000000000000000000000081526004016123d490615cb4565b60405180910390fd5b6001601060008373ffffffffffffffffffffffffffffffffffffffff1673ffffffffffffffffffffffffffffffffffffffff16815260200190815260200160002060006101000a81548160ff021916908315150217905550600f819080600181540180825580915050600190039060005260206000200160009091909190916101000a81548173ffffffffffffffffffffffffffffffffffffffff021916908373ffffffffffffffffffffffffffffffffffffffff16021790555050565b3373ffffffffffffffffffffffffffffffffffffffff16600760003373ffffffffffffffffffffffffffffffffffffffff1673ffffffffffffffffffffffffffffffffffffffff16815260200190815260200160002060010160009054906101000a900473ffffffffffffffffffffffffffffffffffffffff1673ffffffffffffffffffffffffffffffffffffffff161461256b576040517f08c379a000000000000000000000000000000000000000000000000000000000815260040161256290615974565b60405180910390fd5b612575600061478d565b600061258160006147a3565b90508060056000838152602001908152602001600020600001819055506125ad81888888888888611239565b7ff46da869ed8c85408a114aa3d02f6fac9928e8841f3754f7ea0beef14c44ef0d60056000838152602001908152602001600020600001546040516125f291906148dc565b60405180910390a150505050505050565b60096020528060005260406000206000915090508060000154908060010160009054906101000a900473ffffffffffffffffffffffffffffffffffffffff1690806002018054612652906155e7565b80601f016020809104026020016040519081016040528092919081815260200182805461267e906155e7565b80156126cb5780601f106126a0576101008083540402835291602001916126cb565b820191906000526020600020905b8154815290600101906020018083116126ae57829003601f168201915b5050505050908060030180546126e0906155e7565b80601f016020809104026020016040519081016040528092919081815260200182805461270c906155e7565b80156127595780601f1061272e57610100808354040283529160200191612759565b820191906000526020600020905b81548152906001019060200180831161273c57829003601f168201915b5050505050905084565b601060003373ffffffffffffffffffffffffffffffffffffffff1673ffffffffffffffffffffffffffffffffffffffff16815260200190815260200160002060009054906101000a900460ff16806128085750600e60009054906101000a900473ffffffffffffffffffffffffffffffffffffffff1673ffffffffffffffffffffffffffffffffffffffff163373ffffffffffffffffffffffffffffffffffffffff16145b612847576040517f08c379a000000000000000000000000000000000000000000000000000000000815260040161283e90615cb4565b60405180910390fd5b612851600361478d565b600061285d60036147a3565b9050600060405180608001604052808381526020018673ffffffffffffffffffffffffffffffffffffffff16815260200185815260200184815250905080600b60008773ffffffffffffffffffffffffffffffffffffffff1673ffffffffffffffffffffffffffffffffffffffff1681526020019081526020016000206000820151816000015560208201518160010160006101000a81548173ffffffffffffffffffffffffffffffffffffffff021916908373ffffffffffffffffffffffffffffffffffffffff16021790555060408201518160020190816129409190615856565b5060608201518160030190816129569190615856565b50905050600a859080600181540180825580915050600190039060005260206000200160009091909190916101000a81548173ffffffffffffffffffffffffffffffffffffffff021916908373ffffffffffffffffffffffffffffffffffffffff1602179055507f34511330e76c24765144657019711c8f11750604fb0244a75b515c9f410da069828686866040516129f29493929190614b78565b60405180910390a15050505050565b6060601060008373ffffffffffffffffffffffffffffffffffffffff1673ffffffffffffffffffffffffffffffffffffffff16815260200190815260200160002060009054906101000a900460ff1680612aa85750600e60009054906101000a900473ffffffffffffffffffffffffffffffffffffffff1673ffffffffffffffffffffffffffffffffffffffff168273ffffffffffffffffffffffffffffffffffffffff16145b15612aea576040518060400160405280600c81526020017f4f776e65724f7241646d696e00000000000000000000000000000000000000008152509050612e6b565b8173ffffffffffffffffffffffffffffffffffffffff16600760008473ffffffffffffffffffffffffffffffffffffffff1673ffffffffffffffffffffffffffffffffffffffff16815260200190815260200160002060010160009054906101000a900473ffffffffffffffffffffffffffffffffffffffff1673ffffffffffffffffffffffffffffffffffffffff1603612bbc576040518060400160405280600481526020017f4661726d000000000000000000000000000000000000000000000000000000008152509050612e6b565b8173ffffffffffffffffffffffffffffffffffffffff16600960008473ffffffffffffffffffffffffffffffffffffffff1673ffffffffffffffffffffffffffffffffffffffff16815260200190815260200160002060010160009054906101000a900473ffffffffffffffffffffffffffffffffffffffff1673ffffffffffffffffffffffffffffffffffffffff1603612c8e576040518060400160405280601381526020017f446973747269627574696f6e2043656e746572000000000000000000000000008152509050612e6b565b8173ffffffffffffffffffffffffffffffffffffffff16600b60008473ffffffffffffffffffffffffffffffffffffffff1673ffffffffffffffffffffffffffffffffffffffff16815260200190815260200160002060010160009054906101000a900473ffffffffffffffffffffffffffffffffffffffff1673ffffffffffffffffffffffffffffffffffffffff1603612d60576040518060400160405280600881526020017f52657461696c65720000000000000000000000000000000000000000000000008152509050612e6b565b8173ffffffffffffffffffffffffffffffffffffffff16600d60008473ffffffffffffffffffffffffffffffffffffffff1673ffffffffffffffffffffffffffffffffffffffff16815260200190815260200160002060010160009054906101000a900473ffffffffffffffffffffffffffffffffffffffff1673ffffffffffffffffffffffffffffffffffffffff1603612e32576040518060400160405280600881526020017f436f6e73756d65720000000000000000000000000000000000000000000000008152509050612e6b565b6040518060400160405280600581526020017f477565737400000000000000000000000000000000000000000000000000000081525090505b919050565b60068181548110612e8057600080fd5b906000526020600020016000915054906101000a900473ffffffffffffffffffffffffffffffffffffffff1681565b6000806060806000600960008773ffffffffffffffffffffffffffffffffffffffff1673ffffffffffffffffffffffffffffffffffffffff168152602001908152602001600020604051806080016040529081600082015481526020016001820160009054906101000a900473ffffffffffffffffffffffffffffffffffffffff1673ffffffffffffffffffffffffffffffffffffffff1673ffffffffffffffffffffffffffffffffffffffff168152602001600282018054612f71906155e7565b80601f0160208091040260200160405190810160405280929190818152602001828054612f9d906155e7565b8015612fea5780601f10612fbf57610100808354040283529160200191612fea565b820191906000526020600020905b815481529060010190602001808311612fcd57829003601f168201915b50505050508152602001600382018054613003906155e7565b80601f016020809104026020016040519081016040528092919081815260200182805461302f906155e7565b801561307c5780601f106130515761010080835404028352916020019161307c565b820191906000526020600020905b81548152906001019060200180831161305f57829003601f168201915b505050505081525050905080600001518160200151826040015183606001519450945094509450509193509193565b3373ffffffffffffffffffffffffffffffffffffffff16600b60003373ffffffffffffffffffffffffffffffffffffffff1673ffffffffffffffffffffffffffffffffffffffff16815260200190815260200160002060010160009054906101000a900473ffffffffffffffffffffffffffffffffffffffff1673ffffffffffffffffffffffffffffffffffffffff161461317b576040517f08c379a000000000000000000000000000000000000000000000000000000000815260040161317290615a4c565b60405180910390fd5b84600160048111156131905761318f614ab5565b5b6005600083815260200190815260200160002060010160009054906101000a900460ff1660048111156131c6576131c5614ab5565b5b14613206576040517f08c379a00000000000000000000000000000000000000000000000000000000081526004016131fd90615d20565b60405180910390fd5b600560008781526020019081526020016000206008016001015484818111613263576040517f08c379a000000000000000000000000000000000000000000000000000000000815260040161325a906159e0565b60405180910390fd5b6000604051806080016040528089815260200188815260200187815260200186600481111561329557613294614ab5565b5b815250905080600560008b8152602001908152602001600020600c01600082015181600001556020820151816001015560408201518160020190816132da9190615856565b5060608201518160030160006101000a81548160ff0219169083600481111561330657613305614ab5565b5b02179055509050506002600560008b815260200190815260200160002060010160006101000a81548160ff0219169083600481111561334857613347614ab5565b5b02179055507f141778f47b4599c991bdc6f029e6cd492f4923ee07210eb7bf1f3a8230ea88a4888888886040516133829493929190614b2c565b60405180910390a1505050505050505050565b6060600a80548060200260200160405190810160405280929190818152602001828054801561341957602002820191906000526020600020905b8160009054906101000a900473ffffffffffffffffffffffffffffffffffffffff1673ffffffffffffffffffffffffffffffffffffffff16815260200190600101908083116133cf575b5050505050905090565b600f818154811061343357600080fd5b906000526020600020016000915054906101000a900473ffffffffffffffffffffffffffffffffffffffff1681565b6000806060806000600760008773ffffffffffffffffffffffffffffffffffffffff1673ffffffffffffffffffffffffffffffffffffffff168152602001908152602001600020604051806080016040529081600082015481526020016001820160009054906101000a900473ffffffffffffffffffffffffffffffffffffffff1673ffffffffffffffffffffffffffffffffffffffff1673ffffffffffffffffffffffffffffffffffffffff168152602001600282018054613524906155e7565b80601f0160208091040260200160405190810160405280929190818152602001828054613550906155e7565b801561359d5780601f106135725761010080835404028352916020019161359d565b820191906000526020600020905b81548152906001019060200180831161358057829003601f168201915b505050505081526020016003820180546135b6906155e7565b80601f01602080910402602001604051908101604052809291908181526020018280546135e2906155e7565b801561362f5780601f106136045761010080835404028352916020019161362f565b820191906000526020600020905b81548152906001019060200180831161361257829003601f168201915b505050505081525050905080600001518160200151826040015183606001519450945094509450509193509193565b60606000806000600560008681526020019081526020016000206010016002016005600087815260200190815260200160002060100160030160009054906101000a900460ff166005600088815260200190815260200160002060100160030160019054906101000a900460ff166005600089815260200190815260200160002060100160030160029054906101000a900460ff168380546136ff906155e7565b80601f016020809104026020016040519081016040528092919081815260200182805461372b906155e7565b80156137785780601f1061374d57610100808354040283529160200191613778565b820191906000526020600020905b81548152906001019060200180831161375b57829003601f168201915b5050505050935093509350935093509193509193565b600061379a60046147a3565b905090565b6060600880548060200260200160405190810160405280929190818152602001828054801561382357602002820191906000526020600020905b8160009054906101000a900473ffffffffffffffffffffffffffffffffffffffff1673ffffffffffffffffffffffffffffffffffffffff16815260200190600101908083116137d9575b5050505050905090565b600e60009054906101000a900473ffffffffffffffffffffffffffffffffffffffff1681565b601060003373ffffffffffffffffffffffffffffffffffffffff1673ffffffffffffffffffffffffffffffffffffffff16815260200190815260200160002060009054906101000a900460ff16806138f85750600e60009054906101000a900473ffffffffffffffffffffffffffffffffffffffff1673ffffffffffffffffffffffffffffffffffffffff163373ffffffffffffffffffffffffffffffffffffffff16145b613937576040517f08c379a000000000000000000000000000000000000000000000000000000000815260040161392e90615cb4565b60405180910390fd5b613941600261478d565b600061394d60026147a3565b9050600060405180608001604052808381526020018673ffffffffffffffffffffffffffffffffffffffff16815260200185815260200184815250905080600960008773ffffffffffffffffffffffffffffffffffffffff1673ffffffffffffffffffffffffffffffffffffffff1681526020019081526020016000206000820151816000015560208201518160010160006101000a81548173ffffffffffffffffffffffffffffffffffffffff021916908373ffffffffffffffffffffffffffffffffffffffff1602179055506040820151816002019081613a309190615856565b506060820151816003019081613a469190615856565b509050506008859080600181540180825580915050600190039060005260206000200160009091909190916101000a81548173ffffffffffffffffffffffffffffffffffffffff021916908373ffffffffffffffffffffffffffffffffffffffff1602179055507fee26a39f176ac6bfcc52db846f6267acd852a8aa979269f3fe3ded3f44124e8082868686604051613ae29493929190614b78565b60405180910390a15050505050565b60088181548110613b0157600080fd5b906000526020600020016000915054906101000a900473ffffffffffffffffffffffffffffffffffffffff1681565b6000613b3c60036147a3565b905090565b6060600f805480602002602001604051908101604052809291908181526020018280548015613bc557602002820191906000526020600020905b8160009054906101000a900473ffffffffffffffffffffffffffffffffffffffff1673ffffffffffffffffffffffffffffffffffffffff1681526020019060010190808311613b7b575b5050505050905090565b6000806005600084815260200190815260200160002060100160000154600560008581526020019081526020016000206010016001015491509150915091565b6000613c1b60006147a3565b905090565b60006005600083815260200190815260200160002060010160009054906101000a900460ff169050919050565b6000806060600060056000868152602001908152602001600020600801600001546005600087815260200190815260200160002060080160010154600560008881526020019081526020016000206008016002016005600089815260200190815260200160002060080160030160009054906101000a900460ff16818054613cd4906155e7565b80601f0160208091040260200160405190810160405280929190818152602001828054613d00906155e7565b8015613d4d5780601f10613d2257610100808354040283529160200191613d4d565b820191906000526020600020905b815481529060010190602001808311613d3057829003601f168201915b5050505050915093509350935093509193509193565b60056020528060005260406000206000915090508060000154908060010160009054906101000a900460ff1690806002016040518060c00160405290816000820154815260200160018201548152602001600282018054613dc3906155e7565b80601f0160208091040260200160405190810160405280929190818152602001828054613def906155e7565b8015613e3c5780601f10613e1157610100808354040283529160200191613e3c565b820191906000526020600020905b815481529060010190602001808311613e1f57829003601f168201915b5050505050815260200160038201548152602001600482018054613e5f906155e7565b80601f0160208091040260200160405190810160405280929190818152602001828054613e8b906155e7565b8015613ed85780601f10613ead57610100808354040283529160200191613ed8565b820191906000526020600020905b815481529060010190602001808311613ebb57829003601f168201915b505050505081526020016005820160009054906101000a900460ff166004811115613f0657613f05614ab5565b5b6004811115613f1857613f17614ab5565b5b8152505090806008016040518060800160405290816000820154815260200160018201548152602001600282018054613f50906155e7565b80601f0160208091040260200160405190810160405280929190818152602001828054613f7c906155e7565b8015613fc95780601f10613f9e57610100808354040283529160200191613fc9565b820191906000526020600020905b815481529060010190602001808311613fac57829003601f168201915b505050505081526020016003820160009054906101000a900460ff166004811115613ff757613ff6614ab5565b5b600481111561400957614008614ab5565b5b815250509080600c016040518060800160405290816000820154815260200160018201548152602001600282018054614041906155e7565b80601f016020809104026020016040519081016040528092919081815260200182805461406d906155e7565b80156140ba5780601f1061408f576101008083540402835291602001916140ba565b820191906000526020600020905b81548152906001019060200180831161409d57829003601f168201915b505050505081526020016003820160009054906101000a900460ff1660048111156140e8576140e7614ab5565b5b60048111156140fa576140f9614ab5565b5b8152505090806010016040518060c00160405290816000820154815260200160018201548152602001600282018054614132906155e7565b80601f016020809104026020016040519081016040528092919081815260200182805461415e906155e7565b80156141ab5780601f10614180576101008083540402835291602001916141ab565b820191906000526020600020905b81548152906001019060200180831161418e57829003601f168201915b505050505081526020016003820160009054906101000a900460ff1660048111156141d9576141d8614ab5565b5b60048111156141eb576141ea614ab5565b5b81526020016003820160019054906101000a900460ff16600481111561421457614213614ab5565b5b600481111561422657614225614ab5565b5b81526020016003820160029054906101000a900460ff16600481111561424f5761424e614ab5565b5b600481111561426157614260614ab5565b5b81525050905086565b60008082601060008573ffffffffffffffffffffffffffffffffffffffff1673ffffffffffffffffffffffffffffffffffffffff16815260200190815260200160002060009054906101000a900460ff1691509150915091565b600080606060006060600060056000888152602001908152602001600020600201600001546005600089815260200190815260200160002060020160010154600560008a8152602001908152602001600020600201600201600560008b815260200190815260200160002060020160030154600560008c8152602001908152602001600020600201600401600560008d815260200190815260200160002060020160050160009054906101000a900460ff16838054614382906155e7565b80601f01602080910402602001604051908101604052809291908181526020018280546143ae906155e7565b80156143fb5780601f106143d0576101008083540402835291602001916143fb565b820191906000526020600020905b8154815290600101906020018083116143de57829003601f168201915b5050505050935081805461440e906155e7565b80601f016020809104026020016040519081016040528092919081815260200182805461443a906155e7565b80156144875780601f1061445c57610100808354040283529160200191614487565b820191906000526020600020905b81548152906001019060200180831161446a57829003601f168201915b5050505050915095509550955095509550955091939550919395565b3373ffffffffffffffffffffffffffffffffffffffff16600960003373ffffffffffffffffffffffffffffffffffffffff1673ffffffffffffffffffffffffffffffffffffffff16815260200190815260200160002060010160009054906101000a900473ffffffffffffffffffffffffffffffffffffffff1673ffffffffffffffffffffffffffffffffffffffff1614614573576040517f08c379a000000000000000000000000000000000000000000000000000000000815260040161456a90615db2565b60405180910390fd5b846000600481111561458857614587614ab5565b5b6005600083815260200190815260200160002060010160009054906101000a900460ff1660048111156145be576145bd614ab5565b5b146145fe576040517f08c379a00000000000000000000000000000000000000000000000000000000081526004016145f590615e1e565b60405180910390fd5b60056000878152602001908152602001600020600201600301548481811161465b576040517f08c379a0000000000000000000000000000000000000000000000000000000008152600401614652906159e0565b60405180910390fd5b6000604051806080016040528089815260200188815260200187815260200186600481111561468d5761468c614ab5565b5b815250905080600560008b8152602001908152602001600020600801600082015181600001556020820151816001015560408201518160020190816146d29190615856565b5060608201518160030160006101000a81548160ff021916908360048111156146fe576146fd614ab5565b5b02179055509050506001600560008b815260200190815260200160002060010160006101000a81548160ff021916908360048111156147405761473f614ab5565b5b02179055507fcff1f5d075955a367e051ede7a8d3a399ad5c0c8be936d56ce82b70f354370048888888860405161477a9493929190614b2c565b60405180910390a1505050505050505050565b6001816000016000828254019250508190555050565b600081600001549050919050565b600081519050919050565b600082825260208201905092915050565b6000819050602082019050919050565b600073ffffffffffffffffffffffffffffffffffffffff82169050919050565b6000614808826147dd565b9050919050565b614818816147fd565b82525050565b600061482a838361480f565b60208301905092915050565b6000602082019050919050565b600061484e826147b1565b61485881856147bc565b9350614863836147cd565b8060005b8381101561489457815161487b888261481e565b975061488683614836565b925050600181019050614867565b5085935050505092915050565b600060208201905081810360008301526148bb8184614843565b905092915050565b6000819050919050565b6148d6816148c3565b82525050565b60006020820190506148f160008301846148cd565b92915050565b6000604051905090565b600080fd5b600080fd5b614914816147fd565b811461491f57600080fd5b50565b6000813590506149318161490b565b92915050565b60006020828403121561494d5761494c614901565b5b600061495b84828501614922565b91505092915050565b61496d816147fd565b82525050565b600081519050919050565b600082825260208201905092915050565b60005b838110156149ad578082015181840152602081019050614992565b60008484015250505050565b6000601f19601f8301169050919050565b60006149d582614973565b6149df818561497e565b93506149ef81856020860161498f565b6149f8816149b9565b840191505092915050565b6000606082019050614a1860008301866148cd565b614a256020830185614964565b8181036040830152614a3781846149ca565b9050949350505050565b614a4a816148c3565b8114614a5557600080fd5b50565b600081359050614a6781614a41565b92915050565b600060208284031215614a8357614a82614901565b5b6000614a9184828501614a58565b91505092915050565b6000602082019050614aaf6000830184614964565b92915050565b7f4e487b7100000000000000000000000000000000000000000000000000000000600052602160045260246000fd5b60058110614af557614af4614ab5565b5b50565b6000819050614b0682614ae4565b919050565b6000614b1682614af8565b9050919050565b614b2681614b0b565b82525050565b6000608082019050614b4160008301876148cd565b614b4e60208301866148cd565b8181036040830152614b6081856149ca565b9050614b6f6060830184614b1d565b95945050505050565b6000608082019050614b8d60008301876148cd565b614b9a6020830186614964565b8181036040830152614bac81856149ca565b90508181036060830152614bc081846149ca565b905095945050505050565b600080fd5b600080fd5b7f4e487b7100000000000000000000000000000000000000000000000000000000600052604160045260246000fd5b614c0d826149b9565b810181811067ffffffffffffffff82111715614c2c57614c2b614bd5565b5b80604052505050565b6000614c3f6148f7565b9050614c4b8282614c04565b919050565b600067ffffffffffffffff821115614c6b57614c6a614bd5565b5b614c74826149b9565b9050602081019050919050565b82818337600083830152505050565b6000614ca3614c9e84614c50565b614c35565b905082815260208101848484011115614cbf57614cbe614bd0565b5b614cca848285614c81565b509392505050565b600082601f830112614ce757614ce6614bcb565b5b8135614cf7848260208601614c90565b91505092915050565b60008060408385031215614d1757614d16614901565b5b6000614d2585828601614922565b925050602083013567ffffffffffffffff811115614d4657614d45614906565b5b614d5285828601614cd2565b9150509250929050565b60058110614d6957600080fd5b50565b600081359050614d7b81614d5c565b92915050565b600080600080600080600060e0888a031215614da057614d9f614901565b5b6000614dae8a828b01614a58565b9750506020614dbf8a828b01614a58565b9650506040614dd08a828b01614a58565b955050606088013567ffffffffffffffff811115614df157614df0614906565b5b614dfd8a828b01614cd2565b9450506080614e0e8a828b01614a58565b93505060a088013567ffffffffffffffff811115614e2f57614e2e614906565b5b614e3b8a828b01614cd2565b92505060c0614e4c8a828b01614d6c565b91505092959891949750929550565b600080600060608486031215614e7457614e73614901565b5b6000614e8286828701614a58565b9350506020614e9386828701614a58565b9250506040614ea486828701614a58565b9150509250925092565b600080600080600060a08688031215614eca57614ec9614901565b5b6000614ed888828901614a58565b955050602086013567ffffffffffffffff811115614ef957614ef8614906565b5b614f0588828901614cd2565b9450506040614f1688828901614d6c565b9350506060614f2788828901614d6c565b9250506080614f3888828901614d6c565b9150509295509295909350565b60008115159050919050565b614f5a81614f45565b82525050565b6000602082019050614f756000830184614f51565b92915050565b600080600060608486031215614f9457614f93614901565b5b6000614fa286828701614922565b935050602084013567ffffffffffffffff811115614fc357614fc2614906565b5b614fcf86828701614cd2565b925050604084013567ffffffffffffffff811115614ff057614fef614906565b5b614ffc86828701614cd2565b9150509250925092565b60008060008060008060c0878903121561502357615022614901565b5b600061503189828a01614a58565b965050602061504289828a01614a58565b955050604087013567ffffffffffffffff81111561506357615062614906565b5b61506f89828a01614cd2565b945050606061508089828a01614a58565b935050608087013567ffffffffffffffff8111156150a1576150a0614906565b5b6150ad89828a01614cd2565b92505060a06150be89828a01614d6c565b9150509295509295509295565b600060208201905081810360008301526150e581846149ca565b905092915050565b600080600080600060a0868803121561510957615108614901565b5b600061511788828901614a58565b955050602061512888828901614a58565b945050604061513988828901614a58565b935050606086013567ffffffffffffffff81111561515a57615159614906565b5b61516688828901614cd2565b925050608061517788828901614d6c565b9150509295509295909350565b6000608082019050818103600083015261519e81876149ca565b90506151ad6020830186614b1d565b6151ba6040830185614b1d565b6151c76060830184614b1d565b95945050505050565b60006040820190506151e560008301856148cd565b6151f260208301846148cd565b9392505050565b6005811061520a57615209614ab5565b5b50565b600081905061521b826151f9565b919050565b600061522b8261520d565b9050919050565b61523b81615220565b82525050565b60006020820190506152566000830184615232565b92915050565b615265816148c3565b82525050565b600082825260208201905092915050565b600061528782614973565b615291818561526b565b93506152a181856020860161498f565b6152aa816149b9565b840191505092915050565b6152be81614b0b565b82525050565b600060c0830160008301516152dc600086018261525c565b5060208301516152ef602086018261525c565b5060408301518482036040860152615307828261527c565b915050606083015161531c606086018261525c565b5060808301518482036080860152615334828261527c565b91505060a083015161534960a08601826152b5565b508091505092915050565b600060808301600083015161536c600086018261525c565b50602083015161537f602086018261525c565b5060408301518482036040860152615397828261527c565b91505060608301516153ac60608601826152b5565b508091505092915050565b60006080830160008301516153cf600086018261525c565b5060208301516153e2602086018261525c565b50604083015184820360408601526153fa828261527c565b915050606083015161540f60608601826152b5565b508091505092915050565b600060c083016000830151615432600086018261525c565b506020830151615445602086018261525c565b506040830151848203604086015261545d828261527c565b915050606083015161547260608601826152b5565b50608083015161548560808601826152b5565b5060a083015161549860a08601826152b5565b508091505092915050565b600060c0820190506154b860008301896148cd565b6154c56020830188615232565b81810360408301526154d781876152c4565b905081810360608301526154eb8186615354565b905081810360808301526154ff81856153b7565b905081810360a0830152615513818461541a565b9050979650505050505050565b60006040820190506155356000830185614964565b6155426020830184614f51565b9392505050565b600060c08201905061555e60008301896148cd565b61556b60208301886148cd565b818103604083015261557d81876149ca565b905061558c60608301866148cd565b818103608083015261559e81856149ca565b90506155ad60a0830184614b1d565b979650505050505050565b7f4e487b7100000000000000000000000000000000000000000000000000000000600052602260045260246000fd5b600060028204905060018216806155ff57607f821691505b602082108103615612576156116155b8565b5b50919050565b7f43616c6c6572206973206e6f7420616e2061646d696e206f722072657461696c60008201527f6572000000000000000000000000000000000000000000000000000000000000602082015250565b600061567460228361497e565b915061567f82615618565b604082019050919050565b600060208201905081810360008301526156a381615667565b9050919050565b60008190508160005260206000209050919050565b60006020601f8301049050919050565b600082821b905092915050565b60006008830261570c7fffffffffffffffffffffffffffffffffffffffffffffffffffffffffffffffff826156cf565b61571686836156cf565b95508019841693508086168417925050509392505050565b6000819050919050565b600061575361574e615749846148c3565b61572e565b6148c3565b9050919050565b6000819050919050565b61576d83615738565b6157816157798261575a565b8484546156dc565b825550505050565b600090565b615796615789565b6157a1818484615764565b505050565b5b818110156157c5576157ba60008261578e565b6001810190506157a7565b5050565b601f82111561580a576157db816156aa565b6157e4846156bf565b810160208510156157f3578190505b6158076157ff856156bf565b8301826157a6565b50505b505050565b600082821c905092915050565b600061582d6000198460080261580f565b1980831691505092915050565b6000615846838361581c565b9150826002028217905092915050565b61585f82614973565b67ffffffffffffffff81111561587857615877614bd5565b5b61588282546155e7565b61588d8282856157c9565b600060209050601f8311600181146158c057600084156158ae578287015190505b6158b8858261583a565b865550615920565b601f1984166158ce866156aa565b60005b828110156158f6578489015182556001820191506020850194506020810190506158d1565b86831015615913578489015161590f601f89168261581c565b8355505b6001600288020188555050505b505050505050565b7f43616c6c6572206973206e6f742061206661726d000000000000000000000000600082015250565b600061595e60148361497e565b915061596982615928565b602082019050919050565b6000602082019050818103600083015261598d81615951565b9050919050565b7f496e76616c69642074696d650000000000000000000000000000000000000000600082015250565b60006159ca600c8361497e565b91506159d582615994565b602082019050919050565b600060208201905081810360008301526159f9816159bd565b9050919050565b7f43616c6c6572206973206e6f7420612072657461696c65720000000000000000600082015250565b6000615a3660188361497e565b9150615a4182615a00565b602082019050919050565b60006020820190508181036000830152615a6581615a29565b9050919050565b7f44757269616e206973206e6f7420796574206172726976656420525400000000600082015250565b6000615aa2601c8361497e565b9150615aad82615a6c565b602082019050919050565b60006020820190508181036000830152615ad181615a95565b9050919050565b7f4e487b7100000000000000000000000000000000000000000000000000000000600052601160045260246000fd5b6000615b12826148c3565b9150615b1d836148c3565b9250828203905081811115615b3557615b34615ad8565b5b92915050565b7f4e487b7100000000000000000000000000000000000000000000000000000000600052603260045260246000fd5b7f43616c6c6572206973206e6f742074686520636f6e73756d65722077686f206260008201527f6f7567687420746869732064757269616e000000000000000000000000000000602082015250565b6000615bc660318361497e565b9150615bd182615b6a565b604082019050919050565b60006020820190508181036000830152615bf581615bb9565b9050919050565b7f44757269616e206973206e6f7420736f6c640000000000000000000000000000600082015250565b6000615c3260128361497e565b9150615c3d82615bfc565b602082019050919050565b60006020820190508181036000830152615c6181615c25565b9050919050565b7f43616c6c6572206973206e6f7420616e2061646d696e00000000000000000000600082015250565b6000615c9e60168361497e565b9150615ca982615c68565b602082019050919050565b60006020820190508181036000830152615ccd81615c91565b9050919050565b7f44757269616e206973206e6f7420796574206172726976656420444300000000600082015250565b6000615d0a601c8361497e565b9150615d1582615cd4565b602082019050919050565b60006020820190508181036000830152615d3981615cfd565b9050919050565b7f43616c6c6572206973206e6f74206120646973747269627574696f6e2063656e60008201527f7465720000000000000000000000000000000000000000000000000000000000602082015250565b6000615d9c60238361497e565b9150615da782615d40565b604082019050919050565b60006020820190508181036000830152615dcb81615d8f565b9050919050565b7f44757269616e206973206e6f7420686172766573746564000000000000000000600082015250565b6000615e0860178361497e565b9150615e1382615dd2565b602082019050919050565b60006020820190508181036000830152615e3781615dfb565b905091905056fea2646970667358221220bc69d5feb13f10f6798c267c5ba53f7fc158a60a2bf3af6b5324a2408fabab3564736f6c63430008120033",
  "linkReferences": {},
  "deployedLinkReferences": {}
}