{
  "_format": "hh-sol-artifact-1",
  "contractName": "DTrace",
  "sourceName": "contracts/DTrace.sol",
  "abi": [
    {
      "inputs": [],
      "stateMutability": "nonpayable",
      "type": "constructor"
    },
    {
      "inputs": [],
      "name": "_durianId",
      "outputs": [
        {
          "internalType": "uint256",
          "name": "_value",
          "type": "uint256"
        }
      ],
      "stateMutability": "view",
      "type": "function"
    },
    {
      "inputs": [],
      "name": "contractOwner",
      "outputs": [
        {
          "internalType": "address",
          "name": "",
          "type": "address"
        }
      ],
      "stateMutability": "view",
      "type": "function"
    },
    {
      "inputs": [
        {
          "internalType": "uint256",
          "name": "",
          "type": "uint256"
        }
      ],
      "name": "durians",
      "outputs": [
        {
          "internalType": "uint256",
          "name": "durianImg",
          "type": "uint256"
        },
        {
          "internalType": "string",
          "name": "varietyCode",
          "type": "string"
        },
        {
          "internalType": "enum DTrace.DurianStatus",
          "name": "status",
          "type": "uint8"
        },
        {
          "components": [
            {
              "internalType": "uint256",
              "name": "farmID",
              "type": "uint256"
            },
            {
              "internalType": "uint256",
              "name": "treeID",
              "type": "uint256"
            },
            {
              "internalType": "uint256",
              "name": "harvestedDate",
              "type": "uint256"
            }
          ],
          "internalType": "struct DTrace.DurianFarmDetails",
          "name": "durianFarmDetails",
          "type": "tuple"
        },
        {
          "components": [
            {
              "internalType": "uint256",
              "name": "distributionCenterID",
              "type": "uint256"
            },
            {
              "internalType": "uint256",
              "name": "arrivalTimeDC",
              "type": "uint256"
            },
            {
              "internalType": "enum DTrace.Rating",
              "name": "conditionDC",
              "type": "uint8"
            }
          ],
          "internalType": "struct DTrace.DurianDCDetails",
          "name": "durianDCDetails",
          "type": "tuple"
        },
        {
          "components": [
            {
              "internalType": "uint256",
              "name": "retailerID",
              "type": "uint256"
            },
            {
              "internalType": "uint256",
              "name": "arrivalTimeRT",
              "type": "uint256"
            },
            {
              "internalType": "enum DTrace.Rating",
              "name": "conditionRT",
              "type": "uint8"
            }
          ],
          "internalType": "struct DTrace.DurianRTDetails",
          "name": "durianRTDetails",
          "type": "tuple"
        },
        {
          "components": [
            {
              "internalType": "uint256",
              "name": "consumerID",
              "type": "uint256"
            },
            {
              "internalType": "uint256",
              "name": "soldDate",
              "type": "uint256"
            },
            {
              "internalType": "enum DTrace.Rating",
              "name": "taste",
              "type": "uint8"
            },
            {
              "internalType": "enum DTrace.Rating",
              "name": "fragrance",
              "type": "uint8"
            },
            {
              "internalType": "enum DTrace.Rating",
              "name": "creaminess",
              "type": "uint8"
            }
          ],
          "internalType": "struct DTrace.DurianCSDetails",
          "name": "durianCSDetails",
          "type": "tuple"
        }
      ],
      "stateMutability": "view",
      "type": "function"
    }
  ],
  "bytecode": "0x608060405234801561001057600080fd5b5033600160006101000a81548173ffffffffffffffffffffffffffffffffffffffff021916908373ffffffffffffffffffffffffffffffffffffffff1602179055506107f3806100616000396000f3fe608060405234801561001057600080fd5b50600436106100415760003560e01c80630d72b78014610046578063ce606ee014610064578063ee446d9f14610082575b600080fd5b61004e6100b8565b60405161005b9190610383565b60405180910390f35b61006c6100c4565b60405161007991906103df565b60405180910390f35b61009c6004803603810190610097919061042b565b6100ea565b6040516100af97969594939291906106e4565b60405180910390f35b60008060000154905081565b600160009054906101000a900473ffffffffffffffffffffffffffffffffffffffff1681565b60026020528060005260406000206000915090508060000154908060010180546101139061078c565b80601f016020809104026020016040519081016040528092919081815260200182805461013f9061078c565b801561018c5780601f106101615761010080835404028352916020019161018c565b820191906000526020600020905b81548152906001019060200180831161016f57829003601f168201915b5050505050908060020160009054906101000a900460ff1690806003016040518060600160405290816000820154815260200160018201548152602001600282015481525050908060060160405180606001604052908160008201548152602001600182015481526020016002820160009054906101000a900460ff16600481111561021b5761021a6104e8565b5b600481111561022d5761022c6104e8565b5b81525050908060090160405180606001604052908160008201548152602001600182015481526020016002820160009054906101000a900460ff16600481111561027a576102796104e8565b5b600481111561028c5761028b6104e8565b5b815250509080600c016040518060a001604052908160008201548152602001600182015481526020016002820160009054906101000a900460ff1660048111156102d9576102d86104e8565b5b60048111156102eb576102ea6104e8565b5b81526020016002820160019054906101000a900460ff166004811115610314576103136104e8565b5b6004811115610326576103256104e8565b5b81526020016002820160029054906101000a900460ff16600481111561034f5761034e6104e8565b5b6004811115610361576103606104e8565b5b81525050905087565b6000819050919050565b61037d8161036a565b82525050565b60006020820190506103986000830184610374565b92915050565b600073ffffffffffffffffffffffffffffffffffffffff82169050919050565b60006103c98261039e565b9050919050565b6103d9816103be565b82525050565b60006020820190506103f460008301846103d0565b92915050565b600080fd5b6104088161036a565b811461041357600080fd5b50565b600081359050610425816103ff565b92915050565b600060208284031215610441576104406103fa565b5b600061044f84828501610416565b91505092915050565b600081519050919050565b600082825260208201905092915050565b60005b83811015610492578082015181840152602081019050610477565b60008484015250505050565b6000601f19601f8301169050919050565b60006104ba82610458565b6104c48185610463565b93506104d4818560208601610474565b6104dd8161049e565b840191505092915050565b7f4e487b7100000000000000000000000000000000000000000000000000000000600052602160045260246000fd5b60048110610528576105276104e8565b5b50565b600081905061053982610517565b919050565b60006105498261052b565b9050919050565b6105598161053e565b82525050565b6105688161036a565b82525050565b606082016000820151610584600085018261055f565b506020820151610597602085018261055f565b5060408201516105aa604085018261055f565b50505050565b600581106105c1576105c06104e8565b5b50565b60008190506105d2826105b0565b919050565b60006105e2826105c4565b9050919050565b6105f2816105d7565b82525050565b60608201600082015161060e600085018261055f565b506020820151610621602085018261055f565b50604082015161063460408501826105e9565b50505050565b606082016000820151610650600085018261055f565b506020820151610663602085018261055f565b50604082015161067660408501826105e9565b50505050565b60a082016000820151610692600085018261055f565b5060208201516106a5602085018261055f565b5060408201516106b860408501826105e9565b5060608201516106cb60608501826105e9565b5060808201516106de60808501826105e9565b50505050565b6000610220820190506106fa600083018a610374565b818103602083015261070c81896104af565b905061071b6040830188610550565b610728606083018761056e565b61073560c08301866105f8565b61074361012083018561063a565b61075161018083018461067c565b98975050505050505050565b7f4e487b7100000000000000000000000000000000000000000000000000000000600052602260045260246000fd5b600060028204905060018216806107a457607f821691505b6020821081036107b7576107b661075d565b5b5091905056fea2646970667358221220bac5ec02263891ac0d996960a57adbc961eb9afb9ebe4bcf92d42d3e7b04fa9064736f6c63430008120033",
  "linkReferences": {},
  "deployedLinkReferences": {}
}